{
    "_format": "hh-sol-artifact-1",
    "contractName": "RobPunksNFT",
    "sourceName": "contracts/RobPunkNFT.sol",
    "abi": [
        {
            "inputs": [],
            "stateMutability": "payable",
            "type": "constructor"
        },
        {
            "anonymous": false,
            "inputs": [
                {
                    "indexed": true,
                    "internalType": "address",
                    "name": "owner",
                    "type": "address"
                },
                {
                    "indexed": true,
                    "internalType": "address",
                    "name": "approved",
                    "type": "address"
                },
                {
                    "indexed": true,
                    "internalType": "uint256",
                    "name": "tokenId",
                    "type": "uint256"
                }
            ],
            "name": "Approval",
            "type": "event"
        },
        {
            "anonymous": false,
            "inputs": [
                {
                    "indexed": true,
                    "internalType": "address",
                    "name": "owner",
                    "type": "address"
                },
                {
                    "indexed": true,
                    "internalType": "address",
                    "name": "operator",
                    "type": "address"
                },
                {
                    "indexed": false,
                    "internalType": "bool",
                    "name": "approved",
                    "type": "bool"
                }
            ],
            "name": "ApprovalForAll",
            "type": "event"
        },
        {
            "anonymous": false,
            "inputs": [
                {
                    "indexed": true,
                    "internalType": "address",
                    "name": "previousOwner",
                    "type": "address"
                },
                {
                    "indexed": true,
                    "internalType": "address",
                    "name": "newOwner",
                    "type": "address"
                }
            ],
            "name": "OwnershipTransferred",
            "type": "event"
        },
        {
            "anonymous": false,
            "inputs": [
                {
                    "indexed": true,
                    "internalType": "address",
                    "name": "from",
                    "type": "address"
                },
                {
                    "indexed": true,
                    "internalType": "address",
                    "name": "to",
                    "type": "address"
                },
                {
                    "indexed": true,
                    "internalType": "uint256",
                    "name": "tokenId",
                    "type": "uint256"
                }
            ],
            "name": "Transfer",
            "type": "event"
        },
        {
            "inputs": [
                {
                    "internalType": "address",
                    "name": "to",
                    "type": "address"
                },
                {
                    "internalType": "uint256",
                    "name": "tokenId",
                    "type": "uint256"
                }
            ],
            "name": "approve",
            "outputs": [],
            "stateMutability": "nonpayable",
            "type": "function"
        },
        {
            "inputs": [
                {
                    "internalType": "address",
                    "name": "owner",
                    "type": "address"
                }
            ],
            "name": "balanceOf",
            "outputs": [
                {
                    "internalType": "uint256",
                    "name": "",
                    "type": "uint256"
                }
            ],
            "stateMutability": "view",
            "type": "function"
        },
        {
            "inputs": [
                {
                    "internalType": "uint256",
                    "name": "tokenId",
                    "type": "uint256"
                }
            ],
            "name": "getApproved",
            "outputs": [
                {
                    "internalType": "address",
                    "name": "",
                    "type": "address"
                }
            ],
            "stateMutability": "view",
            "type": "function"
        },
        {
            "inputs": [
                {
                    "internalType": "address",
                    "name": "owner",
                    "type": "address"
                },
                {
                    "internalType": "address",
                    "name": "operator",
                    "type": "address"
                }
            ],
            "name": "isApprovedForAll",
            "outputs": [
                {
                    "internalType": "bool",
                    "name": "",
                    "type": "bool"
                }
            ],
            "stateMutability": "view",
            "type": "function"
        },
        {
            "inputs": [],
            "name": "isPublicMintEnabled",
            "outputs": [
                {
                    "internalType": "bool",
                    "name": "",
                    "type": "bool"
                }
            ],
            "stateMutability": "view",
            "type": "function"
        },
        {
            "inputs": [],
            "name": "maxPerWallet",
            "outputs": [
                {
                    "internalType": "uint256",
                    "name": "",
                    "type": "uint256"
                }
            ],
            "stateMutability": "view",
            "type": "function"
        },
        {
            "inputs": [],
            "name": "maxSupply",
            "outputs": [
                {
                    "internalType": "uint256",
                    "name": "",
                    "type": "uint256"
                }
            ],
            "stateMutability": "view",
            "type": "function"
        },
        {
            "inputs": [
                {
                    "internalType": "uint256",
                    "name": "quantity_",
                    "type": "uint256"
                }
            ],
            "name": "mint",
            "outputs": [],
            "stateMutability": "payable",
            "type": "function"
        },
        {
            "inputs": [],
            "name": "mintPrice",
            "outputs": [
                {
                    "internalType": "uint256",
                    "name": "",
                    "type": "uint256"
                }
            ],
            "stateMutability": "view",
            "type": "function"
        },
        {
            "inputs": [],
            "name": "name",
            "outputs": [
                {
                    "internalType": "string",
                    "name": "",
                    "type": "string"
                }
            ],
            "stateMutability": "view",
            "type": "function"
        },
        {
            "inputs": [],
            "name": "owner",
            "outputs": [
                {
                    "internalType": "address",
                    "name": "",
                    "type": "address"
                }
            ],
            "stateMutability": "view",
            "type": "function"
        },
        {
            "inputs": [
                {
                    "internalType": "uint256",
                    "name": "tokenId",
                    "type": "uint256"
                }
            ],
            "name": "ownerOf",
            "outputs": [
                {
                    "internalType": "address",
                    "name": "",
                    "type": "address"
                }
            ],
            "stateMutability": "view",
            "type": "function"
        },
        {
            "inputs": [],
            "name": "renounceOwnership",
            "outputs": [],
            "stateMutability": "nonpayable",
            "type": "function"
        },
        {
            "inputs": [
                {
                    "internalType": "address",
                    "name": "from",
                    "type": "address"
                },
                {
                    "internalType": "address",
                    "name": "to",
                    "type": "address"
                },
                {
                    "internalType": "uint256",
                    "name": "tokenId",
                    "type": "uint256"
                }
            ],
            "name": "safeTransferFrom",
            "outputs": [],
            "stateMutability": "nonpayable",
            "type": "function"
        },
        {
            "inputs": [
                {
                    "internalType": "address",
                    "name": "from",
                    "type": "address"
                },
                {
                    "internalType": "address",
                    "name": "to",
                    "type": "address"
                },
                {
                    "internalType": "uint256",
                    "name": "tokenId",
                    "type": "uint256"
                },
                {
                    "internalType": "bytes",
                    "name": "data",
                    "type": "bytes"
                }
            ],
            "name": "safeTransferFrom",
            "outputs": [],
            "stateMutability": "nonpayable",
            "type": "function"
        },
        {
            "inputs": [
                {
                    "internalType": "address",
                    "name": "operator",
                    "type": "address"
                },
                {
                    "internalType": "bool",
                    "name": "approved",
                    "type": "bool"
                }
            ],
            "name": "setApprovalForAll",
            "outputs": [],
            "stateMutability": "nonpayable",
            "type": "function"
        },
        {
            "inputs": [
                {
                    "internalType": "string",
                    "name": "baseTokenUri_",
                    "type": "string"
                }
            ],
            "name": "setBaseTokenUri",
            "outputs": [],
            "stateMutability": "nonpayable",
            "type": "function"
        },
        {
            "inputs": [
                {
                    "internalType": "bool",
                    "name": "isPublicMintEnabled_",
                    "type": "bool"
                }
            ],
            "name": "setIsPublicMintEnabled",
            "outputs": [],
            "stateMutability": "nonpayable",
            "type": "function"
        },
        {
            "inputs": [
                {
                    "internalType": "bytes4",
                    "name": "interfaceId",
                    "type": "bytes4"
                }
            ],
            "name": "supportsInterface",
            "outputs": [
                {
                    "internalType": "bool",
                    "name": "",
                    "type": "bool"
                }
            ],
            "stateMutability": "view",
            "type": "function"
        },
        {
            "inputs": [],
            "name": "symbol",
            "outputs": [
                {
                    "internalType": "string",
                    "name": "",
                    "type": "string"
                }
            ],
            "stateMutability": "view",
            "type": "function"
        },
        {
            "inputs": [
                {
                    "internalType": "uint256",
                    "name": "tokenId_",
                    "type": "uint256"
                }
            ],
            "name": "tokenURI",
            "outputs": [
                {
                    "internalType": "string",
                    "name": "",
                    "type": "string"
                }
            ],
            "stateMutability": "view",
            "type": "function"
        },
        {
            "inputs": [],
            "name": "totalSupply",
            "outputs": [
                {
                    "internalType": "uint256",
                    "name": "",
                    "type": "uint256"
                }
            ],
            "stateMutability": "view",
            "type": "function"
        },
        {
            "inputs": [
                {
                    "internalType": "address",
                    "name": "from",
                    "type": "address"
                },
                {
                    "internalType": "address",
                    "name": "to",
                    "type": "address"
                },
                {
                    "internalType": "uint256",
                    "name": "tokenId",
                    "type": "uint256"
                }
            ],
            "name": "transferFrom",
            "outputs": [],
            "stateMutability": "nonpayable",
            "type": "function"
        },
        {
            "inputs": [
                {
                    "internalType": "address",
                    "name": "newOwner",
                    "type": "address"
                }
            ],
            "name": "transferOwnership",
            "outputs": [],
            "stateMutability": "nonpayable",
            "type": "function"
        },
        {
            "inputs": [],
            "name": "withdraw",
            "outputs": [],
            "stateMutability": "nonpayable",
            "type": "function"
        },
        {
            "inputs": [],
            "name": "withdrawWallet",
            "outputs": [
                {
                    "internalType": "address payable",
                    "name": "",
                    "type": "address"
                }
            ],
            "stateMutability": "view",
            "type": "function"
        }
    ],
    "bytecode": "0x60806040526040518060400160405280600981526020017f526f626f50756e6b7300000000000000000000000000000000000000000000008152506040518060400160405280600281526020017f525000000000000000000000000000000000000000000000000000000000000081525081600090816200008191906200042b565b5080600190816200009391906200042b565b505050620000b6620000aa620000e360201b60201c565b620000eb60201b60201c565b66470de4df82000060078190555060006008819055506103e86009819055506003600a8190555062000512565b600033905090565b6000600660009054906101000a900473ffffffffffffffffffffffffffffffffffffffff16905081600660006101000a81548173ffffffffffffffffffffffffffffffffffffffff021916908373ffffffffffffffffffffffffffffffffffffffff1602179055508173ffffffffffffffffffffffffffffffffffffffff168173ffffffffffffffffffffffffffffffffffffffff167f8be0079c531659141344cd1fd0a4f28419497f9722a3daafe3b4186f6b6457e060405160405180910390a35050565b600081519050919050565b7f4e487b7100000000000000000000000000000000000000000000000000000000600052604160045260246000fd5b7f4e487b7100000000000000000000000000000000000000000000000000000000600052602260045260246000fd5b600060028204905060018216806200023357607f821691505b602082108103620002495762000248620001eb565b5b50919050565b60008190508160005260206000209050919050565b60006020601f8301049050919050565b600082821b905092915050565b600060088302620002b37fffffffffffffffffffffffffffffffffffffffffffffffffffffffffffffffff8262000274565b620002bf868362000274565b95508019841693508086168417925050509392505050565b6000819050919050565b6000819050919050565b60006200030c620003066200030084620002d7565b620002e1565b620002d7565b9050919050565b6000819050919050565b6200032883620002eb565b62000340620003378262000313565b84845462000281565b825550505050565b600090565b6200035762000348565b620003648184846200031d565b505050565b5b818110156200038c57620003806000826200034d565b6001810190506200036a565b5050565b601f821115620003db57620003a5816200024f565b620003b08462000264565b81016020851015620003c0578190505b620003d8620003cf8562000264565b83018262000369565b50505b505050565b600082821c905092915050565b60006200040060001984600802620003e0565b1980831691505092915050565b60006200041b8383620003ed565b9150826002028217905092915050565b6200043682620001b1565b67ffffffffffffffff811115620004525762000451620001bc565b5b6200045e82546200021a565b6200046b82828562000390565b600060209050601f831160018114620004a357600084156200048e578287015190505b6200049a85826200040d565b8655506200050a565b601f198416620004b3866200024f565b60005b82811015620004dd57848901518255600182019150602085019450602081019050620004b6565b86831015620004fd5784890151620004f9601f891682620003ed565b8355505b6001600288020188555050505b505050505050565b6137a580620005226000396000f3fe6080604052600436106101815760003560e01c806370a08231116100d1578063a0712d681161008a578063c87b56dd11610064578063c87b56dd1461053b578063d5abeb0114610578578063e985e9c5146105a3578063f2fde38b146105e057610181565b8063a0712d68146104cd578063a22cb465146104e9578063b88d4fde1461051257610181565b806370a08231146103cf578063715018a61461040c57806385d178f4146104235780638da5cb5b1461044e57806395652cfa1461047957806395d89b41146104a257610181565b80632373ac221161013e57806342842e0e1161011857806342842e0e14610313578063453c23101461033c5780636352211e146103675780636817c76c146103a457610181565b80632373ac22146102aa57806323b872dd146102d35780633ccfd60b146102fc57610181565b80630116bc2d1461018657806301ffc9a7146101b157806306fdde03146101ee578063081812fc14610219578063095ea7b31461025657806318160ddd1461027f575b600080fd5b34801561019257600080fd5b5061019b610609565b6040516101a891906120ec565b60405180910390f35b3480156101bd57600080fd5b506101d860048036038101906101d39190612173565b61061c565b6040516101e591906120ec565b60405180910390f35b3480156101fa57600080fd5b506102036106fe565b6040516102109190612230565b60405180910390f35b34801561022557600080fd5b50610240600480360381019061023b9190612288565b610790565b60405161024d91906122f6565b60405180910390f35b34801561026257600080fd5b5061027d6004803603810190610278919061233d565b6107d6565b005b34801561028b57600080fd5b506102946108ed565b6040516102a1919061238c565b60405180910390f35b3480156102b657600080fd5b506102d160048036038101906102cc91906123d3565b6108f3565b005b3480156102df57600080fd5b506102fa60048036038101906102f59190612400565b610918565b005b34801561030857600080fd5b50610311610978565b005b34801561031f57600080fd5b5061033a60048036038101906103359190612400565b610a51565b005b34801561034857600080fd5b50610351610a71565b60405161035e919061238c565b60405180910390f35b34801561037357600080fd5b5061038e60048036038101906103899190612288565b610a77565b60405161039b91906122f6565b60405180910390f35b3480156103b057600080fd5b506103b9610afd565b6040516103c6919061238c565b60405180910390f35b3480156103db57600080fd5b506103f660048036038101906103f19190612453565b610b03565b604051610403919061238c565b60405180910390f35b34801561041857600080fd5b50610421610bba565b005b34801561042f57600080fd5b50610438610bce565b60405161044591906124a1565b60405180910390f35b34801561045a57600080fd5b50610463610bf4565b60405161047091906122f6565b60405180910390f35b34801561048557600080fd5b506104a0600480360381019061049b9190612521565b610c1e565b005b3480156104ae57600080fd5b506104b7610c3c565b6040516104c49190612230565b60405180910390f35b6104e760048036038101906104e29190612288565b610cce565b005b3480156104f557600080fd5b50610510600480360381019061050b919061256e565b610ea5565b005b34801561051e57600080fd5b50610539600480360381019061053491906126de565b610ebb565b005b34801561054757600080fd5b50610562600480360381019061055d9190612288565b610f1d565b60405161056f9190612230565b60405180910390f35b34801561058457600080fd5b5061058d610f99565b60405161059a919061238c565b60405180910390f35b3480156105af57600080fd5b506105ca60048036038101906105c59190612761565b610f9f565b6040516105d791906120ec565b60405180910390f35b3480156105ec57600080fd5b5061060760048036038101906106029190612453565b611033565b005b600b60009054906101000a900460ff1681565b60007f80ac58cd000000000000000000000000000000000000000000000000000000007bffffffffffffffffffffffffffffffffffffffffffffffffffffffff1916827bffffffffffffffffffffffffffffffffffffffffffffffffffffffff191614806106e757507f5b5e139f000000000000000000000000000000000000000000000000000000007bffffffffffffffffffffffffffffffffffffffffffffffffffffffff1916827bffffffffffffffffffffffffffffffffffffffffffffffffffffffff1916145b806106f757506106f6826110b6565b5b9050919050565b60606000805461070d906127d0565b80601f0160208091040260200160405190810160405280929190818152602001828054610739906127d0565b80156107865780601f1061075b57610100808354040283529160200191610786565b820191906000526020600020905b81548152906001019060200180831161076957829003601f168201915b5050505050905090565b600061079b82611120565b6004600083815260200190815260200160002060009054906101000a900473ffffffffffffffffffffffffffffffffffffffff169050919050565b60006107e182610a77565b90508073ffffffffffffffffffffffffffffffffffffffff168373ffffffffffffffffffffffffffffffffffffffff1603610851576040517f08c379a000000000000000000000000000000000000000000000000000000000815260040161084890612873565b60405180910390fd5b8073ffffffffffffffffffffffffffffffffffffffff1661087061116b565b73ffffffffffffffffffffffffffffffffffffffff16148061089f575061089e8161089961116b565b610f9f565b5b6108de576040517f08c379a00000000000000000000000000000000000000000000000000000000081526004016108d590612905565b60405180910390fd5b6108e88383611173565b505050565b60085481565b6108fb61122c565b80600b60006101000a81548160ff02191690831515021790555050565b61092961092361116b565b826112aa565b610968576040517f08c379a000000000000000000000000000000000000000000000000000000000815260040161095f90612997565b60405180910390fd5b61097383838361133f565b505050565b61098061122c565b6000600d60009054906101000a900473ffffffffffffffffffffffffffffffffffffffff1673ffffffffffffffffffffffffffffffffffffffff16476040516109c8906129e8565b60006040518083038185875af1925050503d8060008114610a05576040519150601f19603f3d011682016040523d82523d6000602084013e610a0a565b606091505b5050905080610a4e576040517f08c379a0000000000000000000000000000000000000000000000000000000008152600401610a4590612a49565b60405180910390fd5b50565b610a6c83838360405180602001604052806000815250610ebb565b505050565b600a5481565b600080610a8383611638565b9050600073ffffffffffffffffffffffffffffffffffffffff168173ffffffffffffffffffffffffffffffffffffffff1603610af4576040517f08c379a0000000000000000000000000000000000000000000000000000000008152600401610aeb90612ab5565b60405180910390fd5b80915050919050565b60075481565b60008073ffffffffffffffffffffffffffffffffffffffff168273ffffffffffffffffffffffffffffffffffffffff1603610b73576040517f08c379a0000000000000000000000000000000000000000000000000000000008152600401610b6a90612b47565b60405180910390fd5b600360008373ffffffffffffffffffffffffffffffffffffffff1673ffffffffffffffffffffffffffffffffffffffff168152602001908152602001600020549050919050565b610bc261122c565b610bcc6000611675565b565b600d60009054906101000a900473ffffffffffffffffffffffffffffffffffffffff1681565b6000600660009054906101000a900473ffffffffffffffffffffffffffffffffffffffff16905090565b610c2661122c565b8181600c9182610c37929190612d1e565b505050565b606060018054610c4b906127d0565b80601f0160208091040260200160405190810160405280929190818152602001828054610c77906127d0565b8015610cc45780601f10610c9957610100808354040283529160200191610cc4565b820191906000526020600020905b815481529060010190602001808311610ca757829003601f168201915b5050505050905090565b600b60009054906101000a900460ff16610d1d576040517f08c379a0000000000000000000000000000000000000000000000000000000008152600401610d1490612e3a565b60405180910390fd5b60075481610d2b9190612e89565b3414610d6c576040517f08c379a0000000000000000000000000000000000000000000000000000000008152600401610d6390612f17565b60405180910390fd5b60095481600854610d7d9190612f37565b1115610dbe576040517f08c379a0000000000000000000000000000000000000000000000000000000008152600401610db590612fb7565b60405180910390fd5b600a5481600e60003373ffffffffffffffffffffffffffffffffffffffff1673ffffffffffffffffffffffffffffffffffffffff16815260200190815260200160002054610e0c9190612f37565b1115610e4d576040517f08c379a0000000000000000000000000000000000000000000000000000000008152600401610e4490613023565b60405180910390fd5b60005b81811015610ea15760006001600854610e699190612f37565b905060086000815480929190610e7e90613043565b9190505550610e8d338261173b565b508080610e9990613043565b915050610e50565b5050565b610eb7610eb061116b565b8383611759565b5050565b610ecc610ec661116b565b836112aa565b610f0b576040517f08c379a0000000000000000000000000000000000000000000000000000000008152600401610f0290612997565b60405180910390fd5b610f17848484846118c5565b50505050565b6060610f2882611921565b610f67576040517f08c379a0000000000000000000000000000000000000000000000000000000008152600401610f5e906130d7565b60405180910390fd5b600c610f7283611962565b604051602001610f83929190613202565b6040516020818303038152906040529050919050565b60095481565b6000600560008473ffffffffffffffffffffffffffffffffffffffff1673ffffffffffffffffffffffffffffffffffffffff16815260200190815260200160002060008373ffffffffffffffffffffffffffffffffffffffff1673ffffffffffffffffffffffffffffffffffffffff16815260200190815260200160002060009054906101000a900460ff16905092915050565b61103b61122c565b600073ffffffffffffffffffffffffffffffffffffffff168173ffffffffffffffffffffffffffffffffffffffff16036110aa576040517f08c379a00000000000000000000000000000000000000000000000000000000081526004016110a1906132a3565b60405180910390fd5b6110b381611675565b50565b60007f01ffc9a7000000000000000000000000000000000000000000000000000000007bffffffffffffffffffffffffffffffffffffffffffffffffffffffff1916827bffffffffffffffffffffffffffffffffffffffffffffffffffffffff1916149050919050565b61112981611921565b611168576040517f08c379a000000000000000000000000000000000000000000000000000000000815260040161115f90612ab5565b60405180910390fd5b50565b600033905090565b816004600083815260200190815260200160002060006101000a81548173ffffffffffffffffffffffffffffffffffffffff021916908373ffffffffffffffffffffffffffffffffffffffff160217905550808273ffffffffffffffffffffffffffffffffffffffff166111e683610a77565b73ffffffffffffffffffffffffffffffffffffffff167f8c5be1e5ebec7d5bd14f71427d1e84f3dd0314c0f7b2291e5b200ac8c7c3b92560405160405180910390a45050565b61123461116b565b73ffffffffffffffffffffffffffffffffffffffff16611252610bf4565b73ffffffffffffffffffffffffffffffffffffffff16146112a8576040517f08c379a000000000000000000000000000000000000000000000000000000000815260040161129f9061330f565b60405180910390fd5b565b6000806112b683610a77565b90508073ffffffffffffffffffffffffffffffffffffffff168473ffffffffffffffffffffffffffffffffffffffff1614806112f857506112f78185610f9f565b5b8061133657508373ffffffffffffffffffffffffffffffffffffffff1661131e84610790565b73ffffffffffffffffffffffffffffffffffffffff16145b91505092915050565b8273ffffffffffffffffffffffffffffffffffffffff1661135f82610a77565b73ffffffffffffffffffffffffffffffffffffffff16146113b5576040517f08c379a00000000000000000000000000000000000000000000000000000000081526004016113ac906133a1565b60405180910390fd5b600073ffffffffffffffffffffffffffffffffffffffff168273ffffffffffffffffffffffffffffffffffffffff1603611424576040517f08c379a000000000000000000000000000000000000000000000000000000000815260040161141b90613433565b60405180910390fd5b6114318383836001611a30565b8273ffffffffffffffffffffffffffffffffffffffff1661145182610a77565b73ffffffffffffffffffffffffffffffffffffffff16146114a7576040517f08c379a000000000000000000000000000000000000000000000000000000000815260040161149e906133a1565b60405180910390fd5b6004600082815260200190815260200160002060006101000a81549073ffffffffffffffffffffffffffffffffffffffff02191690556001600360008573ffffffffffffffffffffffffffffffffffffffff1673ffffffffffffffffffffffffffffffffffffffff168152602001908152602001600020600082825403925050819055506001600360008473ffffffffffffffffffffffffffffffffffffffff1673ffffffffffffffffffffffffffffffffffffffff16815260200190815260200160002060008282540192505081905550816002600083815260200190815260200160002060006101000a81548173ffffffffffffffffffffffffffffffffffffffff021916908373ffffffffffffffffffffffffffffffffffffffff160217905550808273ffffffffffffffffffffffffffffffffffffffff168473ffffffffffffffffffffffffffffffffffffffff167fddf252ad1be2c89b69c2b068fc378daa952ba7f163c4a11628f55a4df523b3ef60405160405180910390a46116338383836001611b56565b505050565b60006002600083815260200190815260200160002060009054906101000a900473ffffffffffffffffffffffffffffffffffffffff169050919050565b6000600660009054906101000a900473ffffffffffffffffffffffffffffffffffffffff16905081600660006101000a81548173ffffffffffffffffffffffffffffffffffffffff021916908373ffffffffffffffffffffffffffffffffffffffff1602179055508173ffffffffffffffffffffffffffffffffffffffff168173ffffffffffffffffffffffffffffffffffffffff167f8be0079c531659141344cd1fd0a4f28419497f9722a3daafe3b4186f6b6457e060405160405180910390a35050565b611755828260405180602001604052806000815250611b5c565b5050565b8173ffffffffffffffffffffffffffffffffffffffff168373ffffffffffffffffffffffffffffffffffffffff16036117c7576040517f08c379a00000000000000000000000000000000000000000000000000000000081526004016117be9061349f565b60405180910390fd5b80600560008573ffffffffffffffffffffffffffffffffffffffff1673ffffffffffffffffffffffffffffffffffffffff16815260200190815260200160002060008473ffffffffffffffffffffffffffffffffffffffff1673ffffffffffffffffffffffffffffffffffffffff16815260200190815260200160002060006101000a81548160ff0219169083151502179055508173ffffffffffffffffffffffffffffffffffffffff168373ffffffffffffffffffffffffffffffffffffffff167f17307eab39ab6107e8899845ad3d59bd9653f200f220920489ca2b5937696c31836040516118b891906120ec565b60405180910390a3505050565b6118d084848461133f565b6118dc84848484611bb7565b61191b576040517f08c379a000000000000000000000000000000000000000000000000000000000815260040161191290613531565b60405180910390fd5b50505050565b60008073ffffffffffffffffffffffffffffffffffffffff1661194383611638565b73ffffffffffffffffffffffffffffffffffffffff1614159050919050565b60606000600161197184611d3e565b01905060008167ffffffffffffffff8111156119905761198f6125b3565b5b6040519080825280601f01601f1916602001820160405280156119c25781602001600182028036833780820191505090505b509050600082602001820190505b600115611a25578080600190039150507f3031323334353637383961626364656600000000000000000000000000000000600a86061a8153600a8581611a1957611a18613551565b5b049450600085036119d0575b819350505050919050565b6001811115611b5057600073ffffffffffffffffffffffffffffffffffffffff168473ffffffffffffffffffffffffffffffffffffffff1614611ac45780600360008673ffffffffffffffffffffffffffffffffffffffff1673ffffffffffffffffffffffffffffffffffffffff1681526020019081526020016000206000828254611abc9190613580565b925050819055505b600073ffffffffffffffffffffffffffffffffffffffff168373ffffffffffffffffffffffffffffffffffffffff1614611b4f5780600360008573ffffffffffffffffffffffffffffffffffffffff1673ffffffffffffffffffffffffffffffffffffffff1681526020019081526020016000206000828254611b479190612f37565b925050819055505b5b50505050565b50505050565b611b668383611e91565b611b736000848484611bb7565b611bb2576040517f08c379a0000000000000000000000000000000000000000000000000000000008152600401611ba990613531565b60405180910390fd5b505050565b6000611bd88473ffffffffffffffffffffffffffffffffffffffff166120ae565b15611d31578373ffffffffffffffffffffffffffffffffffffffff1663150b7a02611c0161116b565b8786866040518563ffffffff1660e01b8152600401611c239493929190613609565b6020604051808303816000875af1925050508015611c5f57506040513d601f19601f82011682018060405250810190611c5c919061366a565b60015b611ce1573d8060008114611c8f576040519150601f19603f3d011682016040523d82523d6000602084013e611c94565b606091505b506000815103611cd9576040517f08c379a0000000000000000000000000000000000000000000000000000000008152600401611cd090613531565b60405180910390fd5b805181602001fd5b63150b7a0260e01b7bffffffffffffffffffffffffffffffffffffffffffffffffffffffff1916817bffffffffffffffffffffffffffffffffffffffffffffffffffffffff191614915050611d36565b600190505b949350505050565b600080600090507a184f03e93ff9f4daa797ed6e38ed64bf6a1f0100000000000000008310611d9c577a184f03e93ff9f4daa797ed6e38ed64bf6a1f0100000000000000008381611d9257611d91613551565b5b0492506040810190505b6d04ee2d6d415b85acef81000000008310611dd9576d04ee2d6d415b85acef81000000008381611dcf57611dce613551565b5b0492506020810190505b662386f26fc100008310611e0857662386f26fc100008381611dfe57611dfd613551565b5b0492506010810190505b6305f5e1008310611e31576305f5e1008381611e2757611e26613551565b5b0492506008810190505b6127108310611e56576127108381611e4c57611e4b613551565b5b0492506004810190505b60648310611e795760648381611e6f57611e6e613551565b5b0492506002810190505b600a8310611e88576001810190505b80915050919050565b600073ffffffffffffffffffffffffffffffffffffffff168273ffffffffffffffffffffffffffffffffffffffff1603611f00576040517f08c379a0000000000000000000000000000000000000000000000000000000008152600401611ef7906136e3565b60405180910390fd5b611f0981611921565b15611f49576040517f08c379a0000000000000000000000000000000000000000000000000000000008152600401611f409061374f565b60405180910390fd5b611f57600083836001611a30565b611f6081611921565b15611fa0576040517f08c379a0000000000000000000000000000000000000000000000000000000008152600401611f979061374f565b60405180910390fd5b6001600360008473ffffffffffffffffffffffffffffffffffffffff1673ffffffffffffffffffffffffffffffffffffffff16815260200190815260200160002060008282540192505081905550816002600083815260200190815260200160002060006101000a81548173ffffffffffffffffffffffffffffffffffffffff021916908373ffffffffffffffffffffffffffffffffffffffff160217905550808273ffffffffffffffffffffffffffffffffffffffff16600073ffffffffffffffffffffffffffffffffffffffff167fddf252ad1be2c89b69c2b068fc378daa952ba7f163c4a11628f55a4df523b3ef60405160405180910390a46120aa600083836001611b56565b5050565b6000808273ffffffffffffffffffffffffffffffffffffffff163b119050919050565b60008115159050919050565b6120e6816120d1565b82525050565b600060208201905061210160008301846120dd565b92915050565b6000604051905090565b600080fd5b600080fd5b60007fffffffff0000000000000000000000000000000000000000000000000000000082169050919050565b6121508161211b565b811461215b57600080fd5b50565b60008135905061216d81612147565b92915050565b60006020828403121561218957612188612111565b5b60006121978482850161215e565b91505092915050565b600081519050919050565b600082825260208201905092915050565b60005b838110156121da5780820151818401526020810190506121bf565b60008484015250505050565b6000601f19601f8301169050919050565b6000612202826121a0565b61220c81856121ab565b935061221c8185602086016121bc565b612225816121e6565b840191505092915050565b6000602082019050818103600083015261224a81846121f7565b905092915050565b6000819050919050565b61226581612252565b811461227057600080fd5b50565b6000813590506122828161225c565b92915050565b60006020828403121561229e5761229d612111565b5b60006122ac84828501612273565b91505092915050565b600073ffffffffffffffffffffffffffffffffffffffff82169050919050565b60006122e0826122b5565b9050919050565b6122f0816122d5565b82525050565b600060208201905061230b60008301846122e7565b92915050565b61231a816122d5565b811461232557600080fd5b50565b60008135905061233781612311565b92915050565b6000806040838503121561235457612353612111565b5b600061236285828601612328565b925050602061237385828601612273565b9150509250929050565b61238681612252565b82525050565b60006020820190506123a1600083018461237d565b92915050565b6123b0816120d1565b81146123bb57600080fd5b50565b6000813590506123cd816123a7565b92915050565b6000602082840312156123e9576123e8612111565b5b60006123f7848285016123be565b91505092915050565b60008060006060848603121561241957612418612111565b5b600061242786828701612328565b935050602061243886828701612328565b925050604061244986828701612273565b9150509250925092565b60006020828403121561246957612468612111565b5b600061247784828501612328565b91505092915050565b600061248b826122b5565b9050919050565b61249b81612480565b82525050565b60006020820190506124b66000830184612492565b92915050565b600080fd5b600080fd5b600080fd5b60008083601f8401126124e1576124e06124bc565b5b8235905067ffffffffffffffff8111156124fe576124fd6124c1565b5b60208301915083600182028301111561251a576125196124c6565b5b9250929050565b6000806020838503121561253857612537612111565b5b600083013567ffffffffffffffff81111561255657612555612116565b5b612562858286016124cb565b92509250509250929050565b6000806040838503121561258557612584612111565b5b600061259385828601612328565b92505060206125a4858286016123be565b9150509250929050565b600080fd5b7f4e487b7100000000000000000000000000000000000000000000000000000000600052604160045260246000fd5b6125eb826121e6565b810181811067ffffffffffffffff8211171561260a576126096125b3565b5b80604052505050565b600061261d612107565b905061262982826125e2565b919050565b600067ffffffffffffffff821115612649576126486125b3565b5b612652826121e6565b9050602081019050919050565b82818337600083830152505050565b600061268161267c8461262e565b612613565b90508281526020810184848401111561269d5761269c6125ae565b5b6126a884828561265f565b509392505050565b600082601f8301126126c5576126c46124bc565b5b81356126d584826020860161266e565b91505092915050565b600080600080608085870312156126f8576126f7612111565b5b600061270687828801612328565b945050602061271787828801612328565b935050604061272887828801612273565b925050606085013567ffffffffffffffff81111561274957612748612116565b5b612755878288016126b0565b91505092959194509250565b6000806040838503121561277857612777612111565b5b600061278685828601612328565b925050602061279785828601612328565b9150509250929050565b7f4e487b7100000000000000000000000000000000000000000000000000000000600052602260045260246000fd5b600060028204905060018216806127e857607f821691505b6020821081036127fb576127fa6127a1565b5b50919050565b7f4552433732313a20617070726f76616c20746f2063757272656e74206f776e6560008201527f7200000000000000000000000000000000000000000000000000000000000000602082015250565b600061285d6021836121ab565b915061286882612801565b604082019050919050565b6000602082019050818103600083015261288c81612850565b9050919050565b7f4552433732313a20617070726f76652063616c6c6572206973206e6f7420746f60008201527f6b656e206f776e6572206f7220617070726f76656420666f7220616c6c000000602082015250565b60006128ef603d836121ab565b91506128fa82612893565b604082019050919050565b6000602082019050818103600083015261291e816128e2565b9050919050565b7f4552433732313a2063616c6c6572206973206e6f7420746f6b656e206f776e6560008201527f72206f7220617070726f76656400000000000000000000000000000000000000602082015250565b6000612981602d836121ab565b915061298c82612925565b604082019050919050565b600060208201905081810360008301526129b081612974565b9050919050565b600081905092915050565b50565b60006129d26000836129b7565b91506129dd826129c2565b600082019050919050565b60006129f3826129c5565b9150819050919050565b7f7769746864726177206661696c65640000000000000000000000000000000000600082015250565b6000612a33600f836121ab565b9150612a3e826129fd565b602082019050919050565b60006020820190508181036000830152612a6281612a26565b9050919050565b7f4552433732313a20696e76616c696420746f6b656e2049440000000000000000600082015250565b6000612a9f6018836121ab565b9150612aaa82612a69565b602082019050919050565b60006020820190508181036000830152612ace81612a92565b9050919050565b7f4552433732313a2061646472657373207a65726f206973206e6f74206120766160008201527f6c6964206f776e65720000000000000000000000000000000000000000000000602082015250565b6000612b316029836121ab565b9150612b3c82612ad5565b604082019050919050565b60006020820190508181036000830152612b6081612b24565b9050919050565b600082905092915050565b60008190508160005260206000209050919050565b60006020601f8301049050919050565b600082821b905092915050565b600060088302612bd47fffffffffffffffffffffffffffffffffffffffffffffffffffffffffffffffff82612b97565b612bde8683612b97565b95508019841693508086168417925050509392505050565b6000819050919050565b6000612c1b612c16612c1184612252565b612bf6565b612252565b9050919050565b6000819050919050565b612c3583612c00565b612c49612c4182612c22565b848454612ba4565b825550505050565b600090565b612c5e612c51565b612c69818484612c2c565b505050565b5b81811015612c8d57612c82600082612c56565b600181019050612c6f565b5050565b601f821115612cd257612ca381612b72565b612cac84612b87565b81016020851015612cbb578190505b612ccf612cc785612b87565b830182612c6e565b50505b505050565b600082821c905092915050565b6000612cf560001984600802612cd7565b1980831691505092915050565b6000612d0e8383612ce4565b9150826002028217905092915050565b612d288383612b67565b67ffffffffffffffff811115612d4157612d406125b3565b5b612d4b82546127d0565b612d56828285612c91565b6000601f831160018114612d855760008415612d73578287013590505b612d7d8582612d02565b865550612de5565b601f198416612d9386612b72565b60005b82811015612dbb57848901358255600182019150602085019450602081019050612d96565b86831015612dd85784890135612dd4601f891682612ce4565b8355505b6001600288020188555050505b50505050505050565b7f6d696e74696e67206e6f7420656e61626c656400000000000000000000000000600082015250565b6000612e246013836121ab565b9150612e2f82612dee565b602082019050919050565b60006020820190508181036000830152612e5381612e17565b9050919050565b7f4e487b7100000000000000000000000000000000000000000000000000000000600052601160045260246000fd5b6000612e9482612252565b9150612e9f83612252565b9250828202612ead81612252565b91508282048414831517612ec457612ec3612e5a565b5b5092915050565b7f77726f6e67206d696e742076616c756500000000000000000000000000000000600082015250565b6000612f016010836121ab565b9150612f0c82612ecb565b602082019050919050565b60006020820190508181036000830152612f3081612ef4565b9050919050565b6000612f4282612252565b9150612f4d83612252565b9250828201905080821115612f6557612f64612e5a565b5b92915050565b7f736f6c64206f7574000000000000000000000000000000000000000000000000600082015250565b6000612fa16008836121ab565b9150612fac82612f6b565b602082019050919050565b60006020820190508181036000830152612fd081612f94565b9050919050565b7f657863656564206d61782077616c6c6574000000000000000000000000000000600082015250565b600061300d6011836121ab565b915061301882612fd7565b602082019050919050565b6000602082019050818103600083015261303c81613000565b9050919050565b600061304e82612252565b91507fffffffffffffffffffffffffffffffffffffffffffffffffffffffffffffffff82036130805761307f612e5a565b5b600182019050919050565b7f546f6b656e20646f6573206e6f74206578697374210000000000000000000000600082015250565b60006130c16015836121ab565b91506130cc8261308b565b602082019050919050565b600060208201905081810360008301526130f0816130b4565b9050919050565b600081905092915050565b6000815461310f816127d0565b61311981866130f7565b9450600182166000811461313457600181146131495761317c565b60ff198316865281151582028601935061317c565b61315285612b72565b60005b8381101561317457815481890152600182019150602081019050613155565b838801955050505b50505092915050565b6000613190826121a0565b61319a81856130f7565b93506131aa8185602086016121bc565b80840191505092915050565b7f2e6a736f6e000000000000000000000000000000000000000000000000000000600082015250565b60006131ec6005836130f7565b91506131f7826131b6565b600582019050919050565b600061320e8285613102565b915061321a8284613185565b9150613225826131df565b91508190509392505050565b7f4f776e61626c653a206e6577206f776e657220697320746865207a65726f206160008201527f6464726573730000000000000000000000000000000000000000000000000000602082015250565b600061328d6026836121ab565b915061329882613231565b604082019050919050565b600060208201905081810360008301526132bc81613280565b9050919050565b7f4f776e61626c653a2063616c6c6572206973206e6f7420746865206f776e6572600082015250565b60006132f96020836121ab565b9150613304826132c3565b602082019050919050565b60006020820190508181036000830152613328816132ec565b9050919050565b7f4552433732313a207472616e736665722066726f6d20696e636f72726563742060008201527f6f776e6572000000000000000000000000000000000000000000000000000000602082015250565b600061338b6025836121ab565b91506133968261332f565b604082019050919050565b600060208201905081810360008301526133ba8161337e565b9050919050565b7f4552433732313a207472616e7366657220746f20746865207a65726f2061646460008201527f7265737300000000000000000000000000000000000000000000000000000000602082015250565b600061341d6024836121ab565b9150613428826133c1565b604082019050919050565b6000602082019050818103600083015261344c81613410565b9050919050565b7f4552433732313a20617070726f766520746f2063616c6c657200000000000000600082015250565b60006134896019836121ab565b915061349482613453565b602082019050919050565b600060208201905081810360008301526134b88161347c565b9050919050565b7f4552433732313a207472616e7366657220746f206e6f6e20455243373231526560008201527f63656976657220696d706c656d656e7465720000000000000000000000000000602082015250565b600061351b6032836121ab565b9150613526826134bf565b604082019050919050565b6000602082019050818103600083015261354a8161350e565b9050919050565b7f4e487b7100000000000000000000000000000000000000000000000000000000600052601260045260246000fd5b600061358b82612252565b915061359683612252565b92508282039050818111156135ae576135ad612e5a565b5b92915050565b600081519050919050565b600082825260208201905092915050565b60006135db826135b4565b6135e581856135bf565b93506135f58185602086016121bc565b6135fe816121e6565b840191505092915050565b600060808201905061361e60008301876122e7565b61362b60208301866122e7565b613638604083018561237d565b818103606083015261364a81846135d0565b905095945050505050565b60008151905061366481612147565b92915050565b6000602082840312156136805761367f612111565b5b600061368e84828501613655565b91505092915050565b7f4552433732313a206d696e7420746f20746865207a65726f2061646472657373600082015250565b60006136cd6020836121ab565b91506136d882613697565b602082019050919050565b600060208201905081810360008301526136fc816136c0565b9050919050565b7f4552433732313a20746f6b656e20616c7265616479206d696e74656400000000600082015250565b6000613739601c836121ab565b915061374482613703565b602082019050919050565b600060208201905081810360008301526137688161372c565b905091905056fea2646970667358221220662c8e604366e577c3ca50e66189c735ed4b399c474248ad2e385643774380ff64736f6c63430008110033",
    "linkReferences": {},
    "deployedLinkReferences": {}
}